:020000040000FA
:0400000007EF00F016
:100008005F820CED03F05DEF02F053EC03F0000E9D
:100018005E6E000E5D6E8AEC02F00009D8B417EF30
:1000280000F019EF00F05DEF00F0E00E536E2F0EB8
:10003800546ED6EC02F02AEF00F05D50060FD96E30
:10004800DA6ADF5035EC03F05D4A5E2A040E5D186B
:100058005E10D8A432EF00F034EF00F021EF00F08A
:10006800FB0E536E2F0E546ED6EC02F0EF0E536E4D
:100078002F0E546ED6EC02F04BEF00F05D50060FD9
:10008800D96EDA6ADF5035EC03F05D4A5E2A080E55
:100098005D185E10D8A453EF00F055EF00F042EF62
:1000A80000F0FB0E536E2F0E546ED6EC02F00BEFE1
:1000B80000F04D044E10D8A464EF00F066EF00F095
:1000C80070EF00F0BB0E536E2F0E546ED6EC02F09C
:1000D8004D684E6881EF00F04D504E10D8A477EF70
:1000E80000F079EF00F081EF00F0950E536E2F0EBF
:1000F800546ED6EC02F06CEF00F02A50D8B487EFBB
:1001080000F089EF00F00FEF00F02A5035EC03F013
:100118000D0E2A18D8B493EF00F095EF00F0F9EF20
:1001280000F022502310D8A49CEF00F09EEF00F0BE
:10013800C8EF00F02F0E2A64A4EF00F0A6EF00F03D
:1001480002EF02F03A0E2A60ACEF00F0AEEF00F0DA
:1001580002EF02F027BEBCEF00F0275007E1040EC3
:10016800265CD8B0BAEF00F0BCEF00F002EF02F066
:1001780026503A0FD96EDA6A2AC0DFFF264A272AA4
:1001880002EF02F002EF02F022042310D8A4CFEF0E
:1001980000F0D1EF00F002EF02F02F0E2A64D7EF43
:1001A80000F0D9EF00F0C6EF00F03A0E2A60DFEF5A
:1001B80000F0E1EF00F0C6EF00F025BEEFEF00F031
:1001C800255007E1040E245CD8B0EDEF00F0EFEF06
:1001D80000F0C6EF00F024502B0FD96EDA6A2AC05F
:1001E800DFFF244A252A02EF02F0224A232AFB0EC7
:1001F800536E2F0E546ED6EC02F022042310D8A4AE
:1002080008EF01F00AEF01F010EF01F0000E4E6E5A
:10021800000E4D6E1EEF01F0020E22182310D8A416
:1002280018EF01F01AEF01F01EEF01F0000E4E6E0C
:10023800010E4D6E4D504E10D8A425EF01F027EF5A
:1002480001F091EF01F0040E26182710D8B42FEF13
:1002580001F031EF01F091EF01F026502710D8A4FA
:1002680038EF01F03AEF01F056EF01F0000E566E4C
:10027800000E556E55503A0FD96EDA6A300EDF6EA1
:10028800554A562A56BE52EF01F0565009E1040E5F
:10029800555CD8A052EF01F054EF01F03EEF01F0A9
:1002A80002EF02F026042710D8A45DEF01F05FEFFB
:1002B80001F069EF01F03AC03DF0300E3C6E300EAF
:1002C8003B6E300E3A6E02EF02F0020E261827102F
:1002D800D8A471EF01F073EF01F07DEF01F03AC09F
:1002E8003CF03BC03DF0300E3B6E300E3A6E02EFF4
:1002F80002F0030E26182710D8A485EF01F087EF27
:1003080001F002EF02F03CC03DF03BC03CF03AC0C7
:100318003BF0300E3A6E02EF02F04D044E10D8A4B6
:1003280098EF01F09AEF01F002EF02F0040E2418A2
:100338002510D8B4A2EF01F0A4EF01F002EF02F00B
:1003480024502510D8A4ABEF01F0ADEF01F0C9EFB0
:1003580001F0000E586E000E576E57502B0FD96ED5
:10036800DA6A300EDF6E574A582A58BEC5EF01F0D8
:10037800585009E1040E575CD8A0C5EF01F0C7EF4B
:1003880001F0B1EF01F002EF02F024042510D8A427
:10039800D0EF01F0D2EF01F0DCEF01F02BC02EF02E
:1003A800300E2D6E300E2C6E300E2B6E02EF02F0DA
:1003B800020E24182510D8A4E4EF01F0E6EF01F0AE
:1003C800F0EF01F02BC02DF02CC02EF0300E2C6E6B
:1003D800300E2B6E02EF02F0030E24182510D8A45D
:1003E800F8EF01F0FAEF01F002EF02F02DC02EF065
:1003F8002CC02DF02BC02CF0300E2B6E020E2218C4
:100408002310D8A40AEF02F00CEF02F058EF02F024
:10041800000E236E000E226E3E6A2F6A000E5A6E80
:10042800000E596E59503A0FD96EDA6ADF5035EC22
:1004380003F0594A5A2A5ABE2BEF02F05A5009E1E2
:10044800050E595CD8A02BEF02F02DEF02F016EF45
:1004580002F0000E5C6E000E5B6E5B502B0FD96EC7
:10046800DA6ADF5035EC03F05B4A5C2A5CBE46EF83
:1004780002F05C5009E1050E5B5CD8A046EF02F083
:1004880048EF02F031EF02F0FB0E536E2F0E546E60
:10049800D6EC02F0F1EC02F0000E276E000E266E8C
:1004A800000E256E000E246E2A6A0FEF00F007EF8B
:1004B80000F0800EF66E060EF76E000EF86E00EE77
:1004C80060F010EE14F00900F5CFEEFFE550E150B2
:1004D800FAE1420EF66E060EF76E000EF86E00EEAA
:1004E8002BF010EE27F00900F5CFEEFFE550E150B4
:1004F800FAE100EE01F02A0EEE6AE806FDE15F90EF
:100508005F92000EF86E000109EF00F060AE8FEF09
:1005180002F091EF02F0B0EF02F063CF01F064CF88
:1005280002F061CF03F062CF04F065CF05F066CF2B
:1005380006F067CF07F068CF08F069CF09F06ACFF7
:100548000AF06BCF0BF06CCF0CF06DCF0DF0609E06
:10055800A490010EB1EF02F0000E1200939493865E
:100568001F0E6F166F8E800E6E18D8A4BEEF02F0A5
:10057800C0EF02F0B7EF02F0776AE10E706E1B0E63
:10058800716E030E726E010E0D01D46F0F01026BB6
:10059800036B6B0E006FC00E016F1F0E6F166F504E
:1005A800606A1200E2EF02F053C0F6FF54C0F7FF92
:1005B8000800F55035EC03F0534A542A53C0F6FFAF
:1005C80054C0F7FF0800F5500009D8A4EEEF02F078
:1005D800F0EF02F0D8EF02F012000F01436B446B0A
:1005E8006B0E416FC00E426F080E456F3AC046FF52
:1005F8003BC047FF3CC048FF3DC049FF2BC04AFFF6
:100608002CC04BFF2DC04CFF2EC04DFF4087120061
:1006180006009EAA12EF03F014EF03F01FEF03F099
:10062800ABA219EF03F01BEF03F01CEF03F0AB9242
:10063800AECF2AF09E9A5F92110030303030000021
:1006480000000000000000000030303030000000E2
:10065800000000000000000004000100010001008B
:010668000190
:10066A00526E9EA83BEF03F03DEF03F036EF03F026
:10067A0052C0ADFF120030303030000000000000E0
:10068A0030303030000000000000948E949CAC841E
:10069A00AB8EAB88810EAF6E9D8A1200B2EC02F06F
:0A06AA004AEC03F0F28EF28C12000D
:102F940000656E746572207468652070726F647564
:102FA40063742073746F636B206D617820342064C4
:102FB400696769743A2000656E7465722074686587
:102FC400207570646174652073746F636B206D6128
:102FD4007820342064696769743A2000555044416C
:102FE4005445445F53544F434B3A0050524F445559
:0B2FF40043545F49443A000A0D0000FE
:020000040020DA
:08000000FFFFFFFFFFFFFFFF00
:020000040030CA
:0E000000FF071F1FFF8285FF0FC00FE00F409C
:00000001FF
