:020000040000FA
:0400000007EF00F016
:0A0008005E820EED0BF0DDEF0AF052
:1006000000006FEC0CF0C1EC08F021502210D8B4BF
:100610000CEF03F00EEF03F063EF03F042504310D2
:10062000D8B415EF03F017EF03F01DEF03F0010E40
:1006300071EC0AF0276E21EF03F0000E71EC0AF066
:10064000276E3A503B10D8B428EF03F02AEF03F09E
:1006500064EF03F00B0E2718D8A431EF03F033EF4B
:1006600003F052EF03F015501610D8A43AEF03F040
:100670003CEF03F052EF03F013501410D8A443EFF3
:1006800003F045EF03F052EF03F01F502010D8B4F1
:100690004CEF03F04FEF03F0010E50EF03F0000EAC
:1006A0001F6E206A1F502010D8B459EF03F05BEF83
:1006B00003F05FEF03F054EC06F064EF03F0E5ECB9
:1006C00007F064EF03F0836A3A503B10D8A46BEF55
:1006D00003F06DEF03F003EF03F038043910D8A4F2
:1006E00074EF03F076EF03F0F2EF04F0000E436EC8
:1006F000000E426E09040A10D8A481EF03F083EFC4
:1007000003F0CDEF03F0000E046E000E036E000E3A
:100710005D6E000E5C6E5C50770FD96EDA6A2F0E3C
:10072000DF6495EF03F097EF03F0BCEF03F05C504C
:10073000770FD96EDA6A3A0EDF60A1EF03F0A3EF0C
:1007400003F0BCEF03F00A0E0302F3CF59F0F4CF2D
:100750005AF00402F3505A265C50770FD96EDA6AC9
:10076000DF505B6E5B505926000E5A22D00E592482
:10077000036EFF0E5A20046E5C4A5D2A5D5009E14B
:10078000040E5C5CD8A0C7EF03F0C9EF03F08BEF59
:1007900003F0000E0A6E000E096E0E0E2718D8A484
:1007A000D4EF03F0D6EF03F0FCEF03F0074A082A7A
:1007B000150E07180810D8A4E0EF03F0E2EF03F0DD
:1007C000FCEF03F0034A042A04BEF0EF03F0100E1E
:1007D000035C270E0458D8A0F0EF03F0F2EF03F00B
:1007E000F6EF03F0000E046E000E036E000E086EAE
:1007F000000E076E2BEF04F00D0E2718D8A403EFA0
:1008000004F005EF04F02BEF04F0054A062A150E5C
:1008100005180610D8A40FEF04F011EF04F02BEF29
:1008200004F004BE1CEF04F0045008E10304D8A057
:100830001CEF04F01EEF04F023EF04F00306D8A031
:10084000040627EF04F0270E046E0F0E036E000E51
:10085000066E000E056E0B0E2718D8A432EF04F0BA
:1008600034EF04F098EF04F003C049F004C04AF0FC
:10087000030E4C6EE80E4B6E7EEC09F04950576E3D
:10088000100E46EC0CF0000E4C6E640E4B6E03C066
:1008900049F004C04AF07EEC09F049C051F04AC06A
:1008A00052F0000E546E0A0E536EDFEC09F05150F8
:1008B000576E110E46EC0CF0000E4C6E0A0E4B6E8D
:1008C00003C049F004C04AF07EEC09F049C051F081
:1008D0004AC052F0000E546E0A0E536EDFEC09F05F
:1008E0005150576E120E46EC0CF003C051F004C08C
:1008F00052F0000E546E0A0E536EDFEC09F05150A8
:10090000576E130E46EC0CF0000E3B6E010E3A6E65
:10091000000E356E010E346E000E226E000E216E3A
:10092000000E436E010E426E000E046E000E036E4A
:1009300003C049F004C04AF0030E4C6EE80E4B6E43
:100940007EEC09F04950280FD96EDA6ADF50456E07
:10095000000E4C6E640E4B6E03C049F004C04AF0AA
:100960007EEC09F049C051F04AC052F0000E546EBE
:100970000A0E536EDFEC09F05150280FD96EDA6A77
:10098000DF50466E000E4C6E0A0E4B6E03C049F0EF
:1009900004C04AF07EEC09F049C051F04AC052F060
:1009A000000E546E0A0E536EDFEC09F05150280F02
:1009B000D96EDA6ADF50476E03C051F004C052F0BE
:1009C000000E546E0A0E536EDFEC09F05150280FE2
:1009D000D96EDA6ADF50486E450E496EABEC0AF00C
:1009E00003EF03F0000E436E010E426E0B500C102D
:1009F000D8B4FDEF04F0FFEF04F013EF05F0100E94
:100A00007BEC0CF0236E110E7BEC0CF0246E120EBE
:100A10007BEC0CF0256E130E7BEC0CF0266E000EBA
:100A20000C6E000E0B6E0B0E2718D8A41AEF05F0F3
:100A30001CEF05F04CEF05F023C057F0100E46EC0C
:100A40000CF024C057F0110E46EC0CF025C057F006
:100A5000120E46EC0CF026C057F0130E46EC0CF0CC
:100A6000236A246A256A266A000E3B6E010E3A6EDE
:100A7000000E356E010E346E000E226E000E216ED9
:100A8000000E0C6E010E0B6E000E376E010E366EF0
:100A9000000E436E010E426E0D0E2718D8A453EFC0
:100AA00005F055EF05F06BEF05F037BE63EF05F08D
:100AB000375007E1040E365CD8B061EF05F063EF04
:100AC00005F067EF05F0364A372A6BEF05F0000EA8
:100AD000376E010E366E36043710D8A472EF05F06B
:100AE00074EF05F0A4EF05F02350280FD96EDA6AF1
:100AF000DF50456E2450280FD96EDA6ADF50466EFB
:100B00002550280FD96EDA6ADF50476E2650280F1D
:100B1000D96EDA6ADF501009486E0E0E2718D8A475
:100B200094EF05F096EF05F0ECEF04F0090E266067
:100B30009CEF05F09EEF05F0A1EF05F0262AECEF03
:100B400004F0266AECEF04F0020E36183710D8A431
:100B5000ACEF05F0AEEF05F0DEEF05F02350280F07
:100B6000D96EDA6ADF50456E2450280FD96EDA6AE2
:100B7000DF50466E2550280FD96EDA6ADF50100913
:100B8000476E2650280FD96EDA6ADF50486E0E0E77
:100B90002718D8A4CEEF05F0D0EF05F0ECEF04F065
:100BA000090E2560D6EF05F0D8EF05F0DBEF05F074
:100BB000252AECEF04F0256AECEF04F0030E36185A
:100BC0003710D8A4E6EF05F0E8EF05F018EF06F0CF
:100BD0002350280FD96EDA6ADF50456E2450280F53
:100BE000D96EDA6ADF501009466E2550280FD96E8B
:100BF000DA6ADF50476E2650280FD96EDA6ADF5066
:100C0000486E0E0E2718D8A408EF06F00AEF06F07B
:100C1000ECEF04F0090E246010EF06F012EF06F07E
:100C200015EF06F0242AECEF04F0246AECEF04F050
:100C3000040E36183710D8A420EF06F022EF06F085
:100C4000ECEF04F02350280FD96EDA6ADF50100958
:100C5000456E2450280FD96EDA6ADF50466E255053
:100C6000280FD96EDA6ADF50476E2650280FD96EEA
:100C7000DA6ADF50486E0E0E2718D8A442EF06F04D
:100C800044EF06F0ECEF04F0090E23604AEF06F0A3
:100C90004CEF06F04FEF06F0232AECEF04F0236A46
:100CA000ECEF04F007EF00F00D500E10D8A45BEF4E
:100CB00006F05DEF06F061EF06F0870E496EABECD3
:100CC0000AF013041410D8A468EF06F06AEF06F0D7
:100CD000A7EF06F00B0E2718D8A471EF06F073EFFC
:100CE00006F0A7EF06F0000E1E6E000E1D6E000E41
:100CF000226E000E216E000E0E6E000E0D6E000EA6
:100D0000106E000E0F6E000E206E000E1F6E000E95
:100D1000146E000E136E23C057F0210E46EC0CF03B
:100D200024C057F0220E46EC0CF025C057F0230EDD
:100D300046EC0CF026C057F0240E46EC0CF0266A68
:100D4000256A246A236A000E3F6E010E3E6E0D0E68
:100D50002718D8A4AEEF06F0B0EF06F0DEEF06F0ED
:100D6000000E146E010E136E210E7BEC0CF0236E40
:100D7000220E7BEC0CF0246E230E7BEC0CF0256E27
:100D8000240E7BEC0CF0266E000E0E6E010E0D6E26
:100D90001EBED6EF06F01E5007E1040E1D5CD8B053
:100DA000D4EF06F0D6EF06F0DAEF06F01D4A1E2A61
:100DB000DEEF06F0000E1E6E010E1D6E0D040E100D
:100DC000D8A4E5EF06F0E7EF06F0E4EF07F01D0426
:100DD0001E10D8A4EEEF06F0F0EF06F025EF07F0B6
:100DE00026C057F0240E46EC0CF02350280FD96E85
:100DF000DA6ADF50456E2450280FD96EDA6ADF5068
:100E0000466E2550280FD96EDA6ADF50476E26509D
:100E1000280FD96EDA6ADF501009486E0E0E2718B7
:100E2000D8A415EF07F017EF07F0E0EF07F0090E71
:100E300026601DEF07F01FEF07F022EF07F0262ACC
:100E4000E0EF07F0266AE0EF07F0020E1D181E1013
:100E5000D8A42DEF07F02FEF07F064EF07F025C0BF
:100E600057F0230E46EC0CF02350280FD96EDA6AA7
:100E7000DF50456E2450280FD96EDA6ADF50466E77
:100E80002550280FD96EDA6ADF501009476E2650B8
:100E9000280FD96EDA6ADF50486E0E0E2718D8A4D4
:100EA00054EF07F056EF07F0E0EF07F0090E25606A
:100EB0005CEF07F05EEF07F061EF07F0252AE0EF47
:100EC00007F0256AE0EF07F0030E1D181E10D8A4E6
:100ED0006CEF07F06EEF07F0A3EF07F024C057F0B8
:100EE000220E46EC0CF02350280FD96EDA6ADF5040
:100EF000456E2450280FD96EDA6ADF501009466E0D
:100F00002550280FD96EDA6ADF50476E2650280F19
:100F1000D96EDA6ADF50486E0E0E2718D8A493EF08
:100F200007F095EF07F0E0EF07F0090E24609BEF64
:100F300007F09DEF07F0A0EF07F0242AE0EF07F09D
:100F4000246AE0EF07F0040E1D181E10D8A4ABEFC2
:100F500007F0ADEF07F0E0EF07F023C057F0210EE8
:100F600046EC0CF02350280FD96EDA6ADF501009D6
:100F7000456E2450280FD96EDA6ADF50466E255030
:100F8000280FD96EDA6ADF50476E2650280FD96EC7
:100F9000DA6ADF50486E0E0E2718D8A4D2EF07F099
:100FA000D4EF07F0E0EF07F0090E2360DAEF07F067
:100FB000DCEF07F0DFEF07F0232AE0EF07F0236A0A
:100FC000450E496EABEC0AF012000F501010D8A479
:100FD000ECEF07F0EEEF07F0F2EF07F08B0E496E43
:100FE000ABEC0AF015041610D8A4F9EF07F0FBEFEC
:100FF00007F03AEF08F00B0E2718D8A402EF08F01C
:1010000004EF08F03AEF08F036EC0AF0000E1E6E1E
:10101000000E1D6E000E226E000E216E000E0E6E72
:10102000000E0D6E000E106E000E0F6E000E206E84
:10103000000E1F6E000E166E000E156E23C057F0C8
:10104000100E46EC0CF024C057F0110E46EC0CF0DC
:1010500025C057F0120E46EC0CF026C057F0130EC8
:1010600046EC0CF0266A256A246A236A000E416E5B
:10107000010E406E0D0E2718D8A441EF08F043EF83
:1010800008F07EEF08F0000E166E010E156E40504F
:101090004110D8B44EEF08F050EF08F064EF08F0BC
:1010A000100E7BEC0CF0236E110E7BEC0CF0246E1A
:1010B000120E7BEC0CF0256E130E7BEC0CF0266E02
:1010C000000E416E000E406E000E106E010E0F6E8F
:1010D0001EBE76EF08F01E5007E1040E1D5CD8B06E
:1010E00074EF08F076EF08F07AEF08F01D4A1E2A38
:1010F0007EEF08F0000E1E6E010E1D6E0F04101024
:10110000D8A485EF08F087EF08F0C0EF08F01D04C1
:101110001E10D8A48EEF08F090EF08F094EF08F0BE
:10112000CBEC0BF0BCEF08F0020E1D181E10D8A47B
:101130009CEF08F09EEF08F0A2EF08F09CEC0BF09B
:10114000BCEF08F0030E1D181E10D8A4AAEF08F07B
:10115000ACEF08F0B0EF08F06DEC0BF0BCEF08F06E
:10116000040E1D181E10D8A4B8EF08F0BAEF08F04E
:10117000BCEF08F03EEC0BF0450E496EABEC0AF00C
:101180001200FAEC0BF00009D8B4C9EF08F0CBEF6D
:1011900008F07DEF09F065C077F066C078F067C0B1
:1011A00079F068C07AF000017B6B69C06DF06AC0AD
:1011B0006EF06BC06FF06CC070F0716B000E4F6E14
:1011C000000E4E6E6D514A6E4B6A210E7BEC0CF098
:1011D0004C6E4D6A300E4C26000E4D224A504C1873
:1011E00007E14B504D18D8A4F8EF08F0FAEF08F0DB
:1011F000FCEF08F04E4A4F2A00016E514A6E4B6ACE
:10120000220E7BEC0CF04C6E4D6A300E4C26000E1C
:101210004D224A504C1807E14B504D18D8A413EFFB
:1012200009F015EF09F017EF09F04E4A4F2A0001B7
:101230006F514A6E4B6A230E7BEC0CF04C6E4D6A7C
:10124000300E4C26000E4D224A504C1807E14B50F0
:101250004D18D8A42EEF09F030EF09F032EF09F065
:101260004E4A4F2A000170514A6E4B6A240E7BECA5
:101270000CF04C6E4D6A300E4C26000E4D224A503A
:101280004C1807E14B504D18D8A449EF09F04BEF2B
:1012900009F04DEF09F04E4A4F2A040E4E184F1038
:1012A000D8A455EF09F057EF09F071EF09F0000EDF
:1012B000226E010E216E000E3B6E000E3A6E000E85
:1012C000396E010E386E000E356E000E346E000E53
:1012D0000A6E010E096E000E0C6E010E0B6E7DEF94
:1012E00009F0000E3B6E010E3A6E000E356E010ED7
:1012F000346E000E0A6E000E096E12004E6A4CBE6D
:1013000086EF09F084EF09F08CEF09F04B6C4C1E6E
:10131000D8B04C2A010E4E6E4ABE93EF09F091EF01
:1013200009F099EF09F0496C4A1ED8B04A2A010E1B
:101330004E1A000E506E000E4F6E4B504C10D8B42B
:10134000A4EF09F0A6EF09F0CEEF09F0010E4D6E03
:10135000AEEF09F0D8904B364C364D2A4CAEB3EF79
:1013600009F0B5EF09F0AAEF09F0D8904F365036E2
:101370004B50495C4C504A58D8A0C1EF09F0C3EF1C
:1013800009F0C8EF09F04B50495E4C504A5A4F8063
:10139000D8904C324B324D2EB5EF09F04E50D8B4A8
:1013A000D4EF09F0D6EF09F0DAEF09F04F6C501ED8
:1013B000D8B0502A4FC049F050C04AF01200566AC7
:1013C00052BEE7EF09F0E5EF09F0EDEF09F0516CDF
:1013D000521ED8B0522A010E566E54BEF4EF09F0D8
:1013E000F2EF09F0F8EF09F0536C541ED8B0542A0C
:1013F00053505410D8B4FFEF09F001EF0AF025EF75
:101400000AF0010E556E09EF0AF0D89053365436A3
:10141000552A54AE0EEF0AF010EF0AF005EF0AF06D
:101420005350515C54505258D8A019EF0AF01BEF9A
:101430000AF01FEF0AF05350515E5450525AD890A0
:1014400054325332552E10EF0AF05650D8B42BEFC9
:101450000AF02DEF0AF031EF0AF0516C521ED8B0AD
:10146000522A51C051F052C052F012000F01436B8A
:10147000446B6B0E416FC00E426F080E456F100E2D
:101480007BEC0CF0300F0F01466F110E7BEC0CF073
:10149000300F0F01476F120E7BEC0CF0300F0F0175
:1014A000486F130E7BEC0CF0300F0F01496F210ECB
:1014B0007BEC0CF0300F0F014A6F220E7BEC0CF02E
:1014C000300F0F014B6F230E7BEC0CF0300F0F0130
:1014D0004C6F240E7BEC0CF0300F0F014D6F4087EA
:1014E0001200496E4904D8A478EF0AF07AEF0AF0A6
:1014F0009FEF0AF082500F0B0F0AD8B482EF0AF068
:1015000084EF0AF091EF0AF04450D8B48AEF0AF061
:101510008CEF0AF091EF0AF0446A82500F0BAAEFA9
:101520000AF082500F0B0F0AD8A499EF0AF09BEF34
:101530000AF0A9EF0AF0010E446EA9EF0AF0495033
:10154000D8A4A5EF0AF0A7EF0AF0A9EF0AF08DEFF3
:101550000AF00F0E12004E6A49504E24D96EDA6A14
:10156000DF50836E4EC04AF0010E4B6E4A2ABBEF2D
:101570000AF0D8904B364A2EB9EF0AF08050F00BA3
:101580004B10806E030E4D6EE80E4C6E4C06D8A0CC
:101590004D064C2806E14D28D8A4D1EF0AF0D3EF30
:1015A0000AF0C6EF0AF04E2A030E4E64DAEF0AF094
:1015B000DCEF0AF0ACEF0AF01200180EF66E190E0E
:1015C000F76E000EF86E00EE83F010EE0CF00900DE
:1015D000F5CFEEFFE550E150FAE1BC0EF66E180EC5
:1015E000F76E000EF86E00EE28F010EE21F0090004
:1015F000F5CFEEFFE550E150FAE100EE60F0230E8A
:10160000EE6AE806FDE100EE01F0270EEE6AE8065C
:10161000FDE15E905E92000101EF03F00600F2A290
:1016200014EF0BF016EF0BF03CEF0BF034503510CD
:10163000D8B41DEF0BF01FEF0BF02EEF0BF0215085
:101640002210D8B426EF0BF029EF0BF0010E2AEF91
:101650000BF0000E216E226A3BEF0BF03850391070
:10166000D8B435EF0BF038EF0BF0010E39EF0BF07B
:10167000000E386E396AF2925E9211002350280FE4
:10168000D96EDA6ADF501009456E2450280FD96EE2
:10169000DA6ADF50466E2550280FD96EDA6ADF50BD
:1016A000476E2650280FD96EDA6ADF50486E0E0E4C
:1016B0002718D8A45EEF0BF060EF0BF06CEF0BF087
:1016C000090E236066EF0BF068EF0BF06BEF0BF089
:1016D000232A6CEF0BF0236A12002350280FD96ED7
:1016E000DA6ADF50456E2450280FD96EDA6ADF506F
:1016F0001009466E2550280FD96EDA6ADF50476E02
:101700002650280FD96EDA6ADF50486E0E0E271861
:10171000D8A48DEF0BF08FEF0BF09BEF0BF0090EC1
:10172000246095EF0BF097EF0BF09AEF0BF0242A63
:101730009BEF0BF0246A12002350280FD96EDA6A4F
:10174000DF50456E2450280FD96EDA6ADF50466E9E
:101750002550280FD96EDA6ADF501009476E2650DF
:10176000280FD96EDA6ADF50486E0E0E2718D8A4FB
:10177000BCEF0BF0BEEF0BF0CAEF0BF0090E2560CB
:10178000C4EF0BF0C6EF0BF0C9EF0BF0252ACAEF40
:101790000BF0256A12002350280FD96EDA6ADF5049
:1017A000456E2450280FD96EDA6ADF50466E2550F8
:1017B000280FD96EDA6ADF50476E2650280FD96E8F
:1017C000DA6ADF501009486E0E0E2718D8A4EBEF26
:1017D0000BF0EDEF0BF0F9EF0BF0090E2660F3EFD5
:1017E0000BF0F5EF0BF0F8EF0BF0262AF9EF0BF00A
:1017F000266A120060AEFFEF0BF001EF0CF020EF55
:101800000CF063CF60F064CF61F061CF62F062CF23
:1018100063F065CF64F066CF65F067CF66F068CFA0
:1018200067F069CF68F06ACF69F06BCF6AF06CCF70
:101830006BF06DCF6CF0609EA490010E21EF0CF068
:10184000000E1200939493861F0E6F166F8E800EFB
:101850006E18D8A42EEF0CF030EF0CF027EF0CF040
:10186000776AE10E706E1B0E716E030E726E010EC2
:101870000D01D46F0F01026B036B6B0E006FC00E76
:10188000016F1F0E6F166F50606A1200586E58C0BD
:10189000A9FF57C0A8FFA69EA69CA684F29E550E3F
:1018A000A76EAA0EA76EA682F28EA1A85AEF0CF020
:1018B0005CEF0CF055EF0CF0A1981200E721CB6B18
:1018C0002D6EEE23EF6F0100010001000100010009
:0D18D000010001000100010001E7E7E7E76A
:1018DE0096EC0CF084EC0CF022EC0CF092EC0CF08C
:1018EE00F28EF28C93801200496E49C0A9FFA69425
:1018FE00A69EA69CA680A8501200956A9250F00B48
:10190E00926E8050F00B806E1200010001008F0865
:10191E0080E9E5086ECCF18CF292F28812009450B8
:06192E000F09946E120087
:020000040020DA
:08000000FFFFFFFFFFFFFFFF00
:020000040030CA
:0E000000FF071F1FFF8285FF0FC00FE00F409C
:00000001FF
